:200000000C9435000C945D000C945D000C945D000C945D000C945D000C945D000C945D0020
:200020000C945D000C945D000C945D000C945D000C945D000C945D000C945D000C945D00D8
:200040000C9423030C945D000C94F1020C94CB020C945D000C945D000C945D000C945D00E9
:200060000C945D000C945D00C10411241FBECFEFD8E0DEBFCDBF11E0A0E0B1E0EAEFFBE05A
:2000800002C005900D92A234B107D9F721E0A2E4B1E001C01D92A83EB207E1F710E0C5E375
:2000A000D0E004C02197FE010E94F505C433D107C9F70E947A030C94FB050C940000FC018E
:2000C000538D448D252F30E0842F90E0821B930B541710F0CF96089501970895FC01918DF0
:2000E000828D981761F0A28DAE0FBF2FB11D5D968C91928D9F5F9F73928F90E008958FEF5E
:200100009FEF0895FC01918D828D981731F0828DE80FF11D858D90E008958FEF9FEF0895DE
:20012000FC01918D228D892F90E0805C9F4F821B91098F7399270895FC01A48DA80FB92FA0
:20014000B11DA35ABF4F2C91848D90E001968F739927848FA689B7892C93A089B1898C916E
:20016000837080648C93938D848D981306C00288F389E02D80818F7D80830895EF92FF9215
:200180000F931F93CF93DF93EC0181E0888F9B8D8C8D98131AC0E889F989808185FF15C0BF
:2001A0009FB7F894EE89FF896083E889F98980818370806480839FBF81E090E0DF91CF91AE
:2001C0001F910F91FF90EF900895F62E0B8D10E00F5F1F4F0F731127E02E8C8D8E110CC050
:2001E0000FB607FCFACFE889F989808185FFF5CFCE010E949C00F1CFEB8DEC0FFD2FF11DB8
:20020000E35AFF4FF0829FB7F8940B8FEA89FB8980818062CFCFCF93DF93EC01888D88236C
:20022000B9F0AA89BB89E889F9898C9185FD03C0808186FD0DC00FB607FCF7CF8C9185FFC9
:20024000F2CF808185FFEDCFCE010E949C00E9CFDF91CF9108958BE491E00E94900021E057
:20026000892B09F420E0822F089580E090E0892B29F00E942B0181110C9400000895AF9204
:20028000BF92CF92DF92EF92FF920F931F93CF93DF936C017B018B01040F151FEB015E01FA
:2002A000AE18BF08C017D10759F06991D601ED91FC910190F081E02DC6010995892B79F745
:2002C000C501DF91CF911F910F91FF90EF90DF90CF90BF90AF9008953FB7F8948091470156
:2002E00090914801A0914901B0914A0126B5A89B05C02F3F19F00196A11DB11D3FBFBA2F29
:20030000A92F982F8827BC01CD01620F711D811D911D42E0660F771F881F991F4A95D1F786
:2003200008958F929F92AF92BF92CF92DF92EF92FF926B017C010E946C014B015C010E9415
:200340006C01681979098A099B09683E734081059105A8F381E0C81AD108E108F10828EED2
:20036000820E23E0921EA11CB11CC114D104E104F10429F7FF90EF90DF90CF90BF90AF90A2
:200380009F908F900895482FE62F282F30E0863009F459C000F58330E1F1853009F44FC078
:2003A0004830E0F14E3010F1443108F063C02E50310981E090E0A0E0B0E004C0880F991F39
:2003C000AA1FBB1F2A95D2F728B1EE2309F44FC0822B88B908958A30C9F18B30D9F18930BF
:2003E000F9F6809180008F77809380002850310981E090E0A0E0B0E004C0880F991FAA1F75
:20040000BB1F2A95D2F7E1112EC025B1809582232CC09091B0009F7D9093B00081E090E08D
:20042000A0E0B0E004C0880F991FAA1FBB1F4A95D2F72BB1EE23A1F0822B8BB9089594B5F9
:200440009F7D94BDEBCF94B59F77FBCF809180008F7DCACF8091B0008F778093B000C6CFF7
:2004600080958223EACF25B1822B85B9089580958223AFCF08956115710519F460E00C94FD
:20048000C3018630D9F028F4833039F1853089F008958A30C1F08B3041F1893069F58091D5
:2004A00080008068809380007093890060938800089584B5806284BD68BD089584B580685E
:2004C00084BD67BD08958091800080628093800070938B0060938A0008958091B0008062C9
:2004E0008093B0006093B40008958091B00080688093B0006093B30008958F929F92AF92B3
:20050000BF920F931F93CF93DF93CDB7DEB7A1970FB6F894DEBF0FBECDBF19A2423008F4A1
:200520004AE08E010F5D1F4F842E912CB12CA12CA50194010E94C405E62FB901CA01EA30B5
:2005400044F5E05DD801EE938D01232B242B252B79F790E080E0109769F0FD010190002061
:20056000E9F73197AF014A1B5B0BBD018BE491E00E943F01A1960FB6F894DEBF0FBECDBF5A
:20058000DF91CF911F910F91BF90AF909F908F900895E95CD7CF1F920F920FB60F921124EA
:2005A0002F933F934F935F936F937F938F939F93AF93BF93EF93FF938BE491E00E949C00A5
:2005C000FF91EF91BF91AF919F918F917F916F915F914F913F912F910F900FBE0F901F9001
:2005E00018951F920F920FB60F9211242F938F939F93EF93FF93E0915B01F0915C0180818B
:20060000E0916101F091620182FD1BC09081809164018F5F8F7320916501821741F0E09100
:200620006401F0E0E55BFE4F958F80936401FF91EF919F918F912F910F900FBE0F901F9082
:2006400018958081F4CF1F920F920FB60F9211248F939F93AF93BF93809143019091440199
:20066000A0914501B09146010196A11DB11D8093430190934401A0934501B0934601809185
:20068000420193E0980F9D37F0F4909342018091470190914801A0914901B0914A0101967E
:2006A000A11DB11D8093470190934801A0934901B0934A01BF91AF919F918F910F900FBE90
:2006C0000F901F9018958A57809342018091430190914401A0914501B09146010196A11DD9
:2006E000B11D8093430190934401A0934501B0934601CDCFF89482E880937A0083E084BDA7
:2007000085BD80916E00816080936E0081E0809380009BE0909381008093B00084E0809369
:20072000B1001092C1007894EEE3F1E046E1E42E41E0F42E41E050E060E070E0D7018D91A4
:200740009D917D01883008F0F7C02AB15A016B0104C0AA0CBB1CCC1CDD1C8A95D2F7C50104
:20076000822B8AB9EE15FF0549F724E1822E912CA12CB12C30E0632E30E0732EC6E1D1E07C
:200780001881229661E0812F0E94C30164E670E080E090E00E94910160E0812F0E94C301BD
:2007A000EC16FD0669F706E111E0D8018C910E5F1F4F61E00E94C30164E670E080E090E01A
:2007C0000E9491010C171D0781F706E111E0F80180810E5F1F4F60E00E94C30164E670E039
:2007E00080E090E00E949101C017D10781F796E1C92E91E0D92ED6018D919D916D018330A4
:20080000910559F09C01255031092230310528F0245031092330310510F510E000E0582E7B
:20082000B801852D0E943B0265E070E080E090E00E9491010F5F1F4F0115B1E01B0781F7B8
:200840000FEF10E0B801852D0E943B0265E070E080E090E00E9491010150110998F7CC15EC
:20086000DD0549F6CEE3D1E02297188161E0812F0E94C30164E670E080E090E00E949101AE
:2008800060E0812F0E94C301F1E0C631DF0761F7C2E3D0E00E943A05A50194010E94920552
:2008A000660F771F6A5E7E4FDB011C9161E0812F0E94C30162E370E080E090E00E9491011F
:2008C00060E0812F0E94C30162E370E080E090E00E9491012197F1F60E943A0524E630E08F
:2008E00040E050E00E9492051B012C014AE057FE0DC06DE28BE491E00E94BE006627772720
:20090000CB0162197309840995094AE00E947D0242E050E06EE371E08BE491E00E943F01E8
:200920006114710409F42ACF0E942B01882309F425CF0E94000022CF8E3080F424B18850FB
:20094000990B5A016B0104C0AA0CBB1CCC1CDD1C8A95D2F7C501822B84B904CF843108F0E2
:2009600001CF27B18E50990B5A016B0104C0AA0CBB1CCC1CDD1C8A95D2F7C501822B87B9B9
:20098000F1CEEBE4F1E01382128288EE93E0A0E0B0E084839583A683B78388E091E0918367
:2009A000808385EC90E09587848784EC90E09787868780EC90E0918B808B81EC90E0938B23
:2009C000828B82EC90E0958B848B86EC90E0978B868B118E128E138E148E08958F929F9277
:2009E000AF92BF92CF92DF92EF92FF92CF93DF93EC01688179818A819B8161157105810544
:200A0000910521F464E279ED8BE597E02DE133EF41E050E00E94920549015A019B01AC01F0
:200A2000A7EAB1E40E94B1056B017C01ACEEB4EFA50194010E94BF05C60ED71EE81EF91E8B
:200A4000F7FE06C081E0C81AD108E10880E8F80AC882D982EA82FB82C701B6019F77DF91D9
:200A6000CF91FF90EF90DF90CF90BF90AF909F908F9008958F929F92AF92BF92CF92DF920B
:200A8000EF92FF9260910001709101018091020190910301611571058105910521F464E2B3
:200AA00079ED8BE597E02DE133EF41E050E00E94920549015A019B01AC01A7EAB1E40E9479
:200AC000B1056B017C01ACEEB4EFA50194010E94BF05C60ED71EE81EF91EF7FE06C081E097
:200AE000C81AD108E10880E8F80AC0920001D0920101E0920201F0920301C701B6019F77A1
:200B0000FF90EF90DF90CF90BF90AF909F908F90089560930001709301018093020190934E
:200B200003010895052E97FB1EF400940E94A90557FD07D00E94C40507FC03D04EF40C940B
:200B4000A90550954095309521953F4F4F4F5F4F089590958095709561957F4F8F4F9F4F6C
:200B600008950E94E605A59F900DB49F900DA49F800D911D11240895B7FF0C94B1050E947C
:200B8000B105821B930B0895A1E21A2EAA1BBB1BFD010DC0AA1FBB1FEE1FFF1FA217B30755
:200BA000E407F50720F0A21BB30BE40BF50B661F771F881F991F1A9469F76095709580953D
:200BC00090959B01AC01BD01CF010895A29FB001B39FC001A39F700D811D1124911DB29FE6
:200BE000700D811D1124911D0895EE0FFF1F0590F491E02D0994F894FFCF01000000000020
:200C00000000BE003F015F000B0190006E00820003000400050006000700080009000A00B7
:200C20000B000C000D000E000F0010001100120013000000010002000D0A0000FFFFFFFF17
:200C4000FFFFFFFFFFFFFFFFFFFFFFFFFFFFFFFFFFFFFFFFFFFFFFFFFFFFFFFFFFFFFFFFB4
:200C6000FFFFFFFFFFFFFFFFFFFFFFFFFFFFFFFFFFFFFFFFFFFFFFFFFFFFFFFFFFFFFFFF94
:200C80000E948E026C010091410210914202F7012081402F612F80E40E945A03F701218167
:200CA000402F612F88E40E945A030F5F1F4F1093420200934102F2E0EF0EF11CD2CF109212
:200CC0004402109243020E942803FEC00E940203803209F0DECE84E10E94DD0147E050E022
:200CE00065E171E087E492E00E94F00080E1E1C00E940203813879F020F4803841F080E0C6
:200D000007C0823851F08339D1F783E501C082E00E940D03D9C081E0FBCF82E1F9CF85E0FC
:200D200090E00E943D03CFCF8091450290914602892B49F6229A609140028AE00E9478009C
:200D4000CFB7F89480913F0281111CC0F1018491F2019491E82FF0E0EE0FFF1FE859FF4F11
:200D6000A591B4918C91982321F461E08AE00E947800229A8CB580618CBD8CB580648CBDB1
:200D8000259A239A80913F028F5F80933F02CFBF809102010AE01BE822E030E0811104C04C
:200DA00005E513E520E030E040E052E16AE770E080E076956795579547958F5F863011F475
:200DC00087E005C0041715072607370790F3982F906A96958095817020913E02222351F059
:200DE0002FB7F89430913E02313021F43DB33DB33DBB2FBF9CBD8DBD2D9864E170E080E0E7
:200E000090E00E942702C091400261E06C278AE00E947800C5010197F1F76C2F8AE00E94BF
:200E2000780062E370E080E090E00E94270220E040E063E58CEA0E945A03909246028092B1
:200E4000450241CF0E9402030E9402033CCFC6010E94A2034BCF853409F0A3C0809138015B
:200E6000909139018C179D0790F00091410210914202000F111FC132D105F0F060E270E01D
:200E8000C8010E946E03005E1F4FA097F4CF8091430290914402019690934402809343029B
:200EA000C1E10E940203803269F484E10E94DD018C2F0E94DD0108C0BE01C8010E946E0357
:200EC000C0E1EFCF0E94820296B1809102019170891731F091E08927809302010E94AA02EB
:200EE0006114710409F466CD0E945A01882309F461CD0E9400005ECD0E940203082F0E94B8
:200F00000203F82E0E940203D82F0E940203803219F00E948202D8CF10E0102F00270F0D57
:200F2000111D84E10E94DD01D63419F5F12CE12CE016F1060CF0DACEC0914102D091420292
:200F400020E04C2F6D2F80E20E945A030E94DD0120E04C2F6D2F88E20E945A030E94DD0199
:200F60002196D0934202C093410222E0E20EF11CDFCFD534B1F4C0914102D0914202CC0F0E
:200F8000DD1F0C0F1D1FC017D10709F4AFCE2FEF4C2F6D2F80EA0E945A030E94DD01219600
:200FA000F2CF81E186CF84E090E00E943D03209141014091400160913F0180913E010E94DB
:200FC0005A03A6CE10924402109243029FB7F89480913F02882319F0815080933F02809153
:200FE0003F02811105C08CB58F7B8CBD10923E029FBF23982B9825982D986091400281E0F1
:2010000068278AE00E94780022982A98109246021092450258CE0E940203803209F039CDF0
:2010200084E10E94DD0120E040E060E080E30E945A030E94DD0120E041E060E080E30E9423
:201040005A030E94DD0120E042E060E080E30E945A030E94DD014ACE80914302909144029A
:20106000019690934402809343020E940203803209F018CD82E11DCFE7E4F2E013821282CC
:2010800088EE93E0A0E0B0E084839583A683B78387E091E09183808385EC90E095878487DE
:2010A00084EC90E09787868780EC90E0918B808B81EC90E0938B828B82EC90E0958B848B0D
:2010C00086EC90E0978B868B118E128E138E148E0895EE0FFF1F0590F491E02D0994F89471
:2010E000FFCF088001000000009001F0001D01E2014E012C01400141565220495350000065
:00000001FF
