:200000000C94FD000C94300E0C94570E0C9425010C9425010C9425010C9425010C94A10DFA
:200020000C9425010C9425010C9425010C9425010C9425010C9425010C9425010C94250190
:200040000C947E0E0C9425010C944D030C947F030C9425010C9425010C9425010C94250184
:200060000C9425010C9425014E414E494E495459494E46CDCCCC3D0AD7233C17B7D138777D
:20008000CC2B329595E6241FB14F0A000020410000C84200401C4620BCBE4CCA1B0E5AAEEC
:2000A000C59D7400407A10F35A00A0724E18090010A5D4E80000E87648170000E40B54025F
:2000C0000000CA9A3B000000E1F505000080969800000040420F000000A086010000001030
:2000E0002700000000E803000000006400000000000A00000000000100000000002C76D805
:2001000088DC674F0823DFC1DFAE59E1B1B796E5E3E453C63AE651997696E8E6C28426EB35
:20012000898C9B62ED407C6FFCEFBC9C9F40F2BAA56FA5F490055A2AF75C936B6CF9676D77
:20014000C11BFCE0E40D47FEF520E6B500D0ED902E0300943577050080841E080000204EA6
:200160000A000000C80C333333330F986E12831141EF8D2114893BE65516CFFEE6DB18D19C
:20018000844B381BF77C1D901DA4BBE424203284725E228100C9F124ECA1E53D270200009A
:2001A0000008000201000003040700000000000000000102040810204080010204081020E8
:2001C00001020408102004040404040404040202020202020303030303030000000023007F
:2001E0002600290000000000250028002B0000000000240027002A00811B11241FBECFEF57
:20020000D8E0DEBFCDBF11E0A0E0B1E0E8EFFCE402C005900D92A037B107D9F722E0A0E766
:20022000B1E001C01D92A333B207E1F710E0CDEFD0E004C02197FE010E941F1CCC3FD107BF
:20024000C9F70E94AF1B0C947A260C940000CF93DF93C0E0D1E08881229661E00E941C109D
:2002600081E0CA32D807B9F7DF91CF9108950F931F93CF93DF93C0E0D1E08881229661E0AA
:200280000E94581064E670E080E090E00E94F90EFE01329760E080810E94581081E0CA32D1
:2002A000D80759F7C0E0D1E08881229661E00E94581064E670E080E090E00E94F90EE1E0DE
:2002C000CA32DE0789F700E011E0F80180810E5F1F4F60E00E94581064E670E080E090E063
:2002E0000E94F90EC017D10781F7C0E0D1E0888199818330910549F09C012550310922309A
:20030000310518F00997039708F510E000E0B80188810E94960F65E070E080E090E00E9488
:20032000F90E0F5F1F4F0115F1E01F0781F70FEF10E0B80188810E94960F65E070E080E069
:2003400090E00E94F90E0150110998F72296E1E0CA32DE0761F6CAE2D1E0229761E0888179
:200360000E94581064E670E080E090E00E94F90E60E088810E945810F1E0C030DF0769F706
:20038000C2E3D0E065E170E080E090E00E946311660F771F60507F4FFB01108161E0812F85
:2003A0000E94581062E370E080E090E00E94F90E60E0812F0E94581062E370E080E090E0C6
:2003C0000E94F90E2197F1F6DF91CF911F910F9108950E9414210E94E9010E94E901FC012C
:2003E000918D228D892F90E0805C9F4F821B91098F7399270895FC01918D828D981731F0AE
:20040000828DE80FF11D858D90E008958FEF9FEF0895FC01918D828D981761F0A28DAE0FEA
:20042000BF2FB11D5D968C91928D9F5F9F73928F90E008958FEF9FEF0895FC01538D448D3C
:20044000252F30E0842F90E0821B930B541710F0CF9608950197089585EA93E0892B49F069
:2004600080E090E0892B29F00E94A50381110C9400000895FC01A48DA80FB92FB11DA35A2E
:20048000BF4F2C91848D90E001968F739927848FA689B7892C93A089B1898C91837080641F
:2004A0008C93938D848D981306C00288F389E02D80818F7D80830895CF93DF93EC01888DE5
:2004C0008823B9F0AA89BB89E889F9898C9185FD03C0808186FD0DC00FB607FCF7CF8C9100
:2004E00085FFF2CF808185FFEDCFCE010E943A02E9CFDF91CF910895EF92FF920F931F933E
:20050000CF93DF93EC0181E0888F9B8D8C8D98131AC0E889F989808185FF15C09FB7F894AD
:20052000EE89FF896083E889F98980818370806480839FBF81E090E0DF91CF911F910F91BC
:20054000FF90EF900895F62E0B8D10E00F5F1F4F0F731127E02E8C8D8E110CC00FB607FC54
:20056000FACFE889F989808185FFF5CFCE010E943A02F1CFEB8DEC0FFD2FF11DE35AFF4FD1
:20058000F0829FB7F8940B8FEA89FB8980818062CFCFCF92DF92EF92FF921F93CF93DF938B
:2005A000EC016A017B01122FE889F98982E08083C11481EED806E104F104A1F060E079E0A8
:2005C0008DE390E0A70196010E94D31B21503109410951095695479537952795211580E137
:2005E000380798F0E889F989108260E874E88EE190E0A70196010E94D31B21503109410968
:2006000051095695479537952795EC85FD853083EE85FF852083188EEC89FD891083EA894A
:20062000FB89808180618083EA89FB89808188608083EA89FB89808180688083EA89FB8994
:2006400080818F7D8083DF91CF911F91FF90EF90DF90CF900895CF93DF93EC01E881F981ED
:200660000680F781E02D0995EA89FB8980818F7E8083EA89FB898081877F8083EA89FB89D1
:2006800080818F778083EA89FB8980818F7D80838A8D898FDF91CF9108951F920F920FB696
:2006A0000F9211242F938F939F93EF93FF93E0918001F09181018081E0918601F091870143
:2006C00082FD1BC09081809189018F5F8F7320918A01821741F0E0918901F0E0E059FE4FCD
:2006E000958F80938901FF91EF919F918F912F910F900FBE0F901F9018958081F4CF1F923D
:200700000F920FB60F9211242F933F934F935F936F937F938F939F93AF93BF93EF93FF9325
:2007200080E791E00E943A02FF91EF91BF91AF919F918F917F916F915F914F913F912F91A3
:200740000F900FBE0F901F90189580E791E00E94EF0121E0892B09F420E0822F089508952B
:200760008F929F92AF92BF92CF92DF92EF92FF920F931F93CF93DF937C018B014C0182E0D1
:20078000880E911C5701E5E0AE0EB11CD0E0C0E0F40161914F014AE050E0C8010E944306DB
:2007A0006C016EE2C8010E9403058C0D9D1DC80FD91F8A149B0461F74AE050E0F70165811A
:2007C000C8010E9443068C0F9D1FDF91CF911F910F91FF90EF90DF90CF90BF90AF909F9055
:2007E0008F90089522E531E0FC0131832083128213821482158208950F93FC0182E591E067
:200800009183808362834383248305830F91089522E531E0FC0131832083428353836483BC
:2008200075830895DC0182E591E08D939D9384E0FB0101900D928A95E1F70895DC0190E0AD
:2008400030E020E08AE0FB014191BF01442311F150ED540F5A3090F4829FF001839FF00D48
:2008600011249F0120533109240F311D47FD3A952F3F310541F338F380E008954E32E1F70A
:200880009330D1F3FD01E90FF11D22839F5F30E020E0D9CF933081F715962C9381E00895CF
:2008A000DC01129624E0FB0101900D922A95E1F70895FC01428353836483758308959B019F
:2008C000BC016E5F7F4F44E050E0C9010E946D2121E0892B09F020E0822F089590E080E0A6
:2008E000089508950895009711F481E090E00C948E1E0C9473040C9473040C947904CB0151
:200900000895CB0108950C942A1F0C9483040C9483040C94850408950895AF92BF92CF9244
:20092000DF92EF92FF920F931F93CF93DF936C017B018B01040F151FEB015E01AE18BF0878
:20094000C017D10759F06991D601ED91FC910190F081E02DC6010995892B79F7C501DF91F5
:20096000CF911F910F91FF90EF90DF90CF90BF90AF900895FB0101900020E9F73197AF01BB
:20098000461B570BDC01ED91FC910280F381E02D0994EF92FF920F931F93CF93DF938C0145
:2009A0007B01D0E0C0E0F701EC0FFD1F6491662361F0D801ED91FC910190F081E02DC801D1
:2009C0000995892B11F02196EECFCE01DF91CF911F910F91FF90EF900895DB0114964D9152
:2009E0005C9115976D917C91DC01ED91FC910280F381E02D09946115710511F00C94BA0480
:200A000090E080E00895DC01ED91FC910190F081E02D0994DB01ED91FC9111970190F08144
:200A2000E02DBC01CD01099464E571E00C94BA040F931F93CF93DF93EC010E94C9048C0178
:200A4000CE010E941405800F911FDF91CF911F910F9108950F931F93CF93DF93EC010E9459
:200A6000ED048C01CE010E941405800F911FDF91CF911F910F9108950F931F93CF93DF934A
:200A80008C01D0E0C0E06115710519F00E94BA04EC01C8010E9414058C0F9D1FDF91CF918C
:200AA0001F910F9108950F931F93CF93DF93EC010E9403058C01CE010E941405800F911F34
:200AC000DF91CF911F910F9108950F931F93CF93DF93EC010E940A058C01CE010E9414057C
:200AE000800F911FDF91CF911F910F9108958F929F92AF92BF92EF92FF920F931F93CF934E
:200B0000DF93CDB7DEB7A1970FB6F894DEBF0FBECDBF7C01FA01CB0119A2223008F42AE074
:200B20008E010F5D1F4F822E912CB12CA12CBF01A50194010E94D31BF901CA016A300CF54A
:200B4000605DD8016E938D01232B242B252B79F790E080E0109721F0BD01C7010E94BA04A5
:200B6000A1960FB6F894DEBF0FBECDBFDF91CF911F910F91FF90EF90BF90AF909F908F90ED
:200B80000895695CDECFCF92DF92EF92FF920F931F93CF93DF932115310581F4DC01ED91FE
:200BA000FC910190F081E02D642FDF91CF911F910F91FF90EF90DF90CF9009942A303105DD
:200BC00001F52AE077FF1DC06A017B01EC016DE20E9403058C0144275527BA014C195D09FB
:200BE0006E097F092AE0CE010E947705800F911FDF91CF911F910F91FF90EF90DF90CF90C4
:200C00000895DF91CF911F910F91FF90EF90DF90CF900C9477059A01AB01770F660B770B5F
:200C20000C94C3050F931F93CF93DF93EC010E940B068C01CE010E941405800F911FDF91BE
:200C4000CF911F910F9108950F931F93CF93DF93EC010E94C3058C01CE010E941405800F22
:200C6000911FDF91CF911F910F9108952115310541F4DC01ED91FC910190F081E02D642FDC
:200C800009940C9477059A01462F50E070E060E00C9436060F931F93CF93DF93EC010E9438
:200CA00043068C01CE010E941405800F911FDF91CF911F910F9108959A01AB0170E060E001
:200CC0000C9436060F931F93CF93DF93EC010E945C068C01CE010E941405800F911FDF9159
:200CE000CF911F910F9108950F931F93CF93DF93EC010E9436068C01CE010E941405800F0E
:200D0000911FDF91CF911F910F9108952F923F924F925F926F927F928F929F92AF92BF920C
:200D2000CF92DF92EF92FF921F93CF93DF93EC016A017B01722EAB019601CB01B6010E946D
:200D40006B1E67E571E0811126C046015701E894B7F82FEF3FEF4FE75FE7C501B4010E9446
:200D60006B1E81110CC02FEF3FEF4FE75FE7C501B4010E94A11C6BE571E0181664F02FEFA9
:200D80003FEF4FE75FE4C701B6010E94F91D1816B4F46FE571E0CE01DF91CF911F91FF901C
:200DA000EF90DF90CF90BF90AF909F908F907F906F905F904F903F902F900C94BA042FEF24
:200DC0003FEF4FE75FECC701B6010E94A11C87FDE0CF20E030E0A901C701B6010E94A11CBB
:200DE000312C212C87FF09C06DE2CE010E9403051C01F7FAF094F7F8F09410E060E070E0AD
:200E000080E09FE3711641F020E030E040E251E40E94A61C1F5FF6CFA70196010E94351CF8
:200E20002B013C010E94181D4B015C012AE0BC01A401CE010E9477057C01E20CF31C1123C2
:200E4000B1F1C501B4010E94471D9B01AC01C301B2010E94341C4B015C016EE2CE010E9453
:200E60000305E80EF91E115010F120E030E040E251E4C501B4010E94FE1D2B013C010E9451
:200E8000181D4B014AE050E0CE010E945C06E80EF91EB40190E080E00E94471D9B01AC01C3
:200EA000C301B2010E94341C4B015C01DCCFC701DF91CF911F91FF90EF90DF90CF90BF9002
:200EC000AF909F908F907F906F905F904F903F902F9008950C9486060F931F93CF93DF932A
:200EE000EC010E9486068C01CE010E941405800F911FDF91CF911F910F9108950F931F9370
:200F0000CF93DF93EC010E94C80E688779878A879B87E881F9810284F385E02DCE0109951B
:200F200097FF15C00E94C80E088519852A853B85601B710B820B930B0C811D812E813F8178
:200F4000601771078207930720F38FEF9FEFDF91CF911F910F9108950F931F93CF93DF937B
:200F6000EC010E94C80E688779878A879B87E881F9810484F585E02DCE01099597FF15C020
:200F80000E94C80E088519852A853B85601B710B820B930B0C811D812E813F816017710794
:200FA0008207930720F38FEF9FEFDF91CF911F910F910895FF920F931F93CF93DF93EC018C
:200FC0008B01F42ECE010E94AC0797FD1DC08D329105D1F09C01205331092A303105A0F04E
:200FE000FF2019F08E32910579F00130110551F00230110589F48D30910571F05CF4099719
:20100000029750F08FEF9FEFDF91CF911F910F91FF9008958097B1F7E881F9810284F385FF
:20102000E02DCE010995CECFFC0144835583668377830895BF92CF92DF92EF92FF920F93A6
:201040001F93CF93DF938C01C42F40E00E94DA07FC01C12CD12C760197FD3EC0B12C0C2EE0
:20106000000CDD0BCE17DF07D9F0ED32F10509F43FC0CF01C0970A9798F4AAE0B0E0A701C1
:2010800096010E94141C6F01FF0FEE08FF08C60ED71EE81EF91E80E3C81AD108E108F10886
:2010A000D801ED91FC910284F385E02DC8010995C8010E94AC07FC01C0970A9798F2CE1758
:2010C000DF0781F2BB2041F0F094E094D094C094C11CD11CE11CF11CC701B601DF91CF91D8
:2010E0001F910F91FF90EF90DF90CF90BF900895BB24B394D5CF4F925F926F927F92AF92E9
:20110000BF92CF92DF92EF92FF920F931F93CF93DF935C01042F41E00E94DA07FC0160E001
:2011200070E0CB01F7FD69C0412C512C80E8682E8FE3782EC12CD12C7601C0E0D0E0002E97
:20114000000C110B0E171F0759F1ED32F10509F463C0EE32F10509F461C0CF01C0970A97A1
:20116000F8F4AAE0B0E0A70196010E94141C6F01FF0FEE08FF08C60ED71EE81EF91E80E394
:20118000C81AD108E108F108CC2351F02DEC3CEC4CEC5DE3C301B2010E94FE1D2B013C012C
:2011A000D501ED91FC910284F385E02DC5010995C5010E94AC07FC01C0970A9718F2EE32A5
:2011C000F10519F4CC2309F4BDCF0E171F0709F4B9CFDD2341F0F094E094D094C094C11C06
:2011E000D11CE11CF11CC701B6010E94491DCC2321F0A30192010E94FE1DDF91CF911F91FD
:201200000F91FF90EF90DF90CF90BF90AF907F906F905F904F900895D1E0C2CFC1E0C0CFD9
:20122000AF92BF92CF92DF92EF92FF920F931F93CF93DF935C017B018B01040F151FEB0178
:201240006E01CE18DF08C017D10739F0C5010E947E0797FD02C08993F3CFC601DF91CF91C2
:201260001F910F91FF90EF90DF90CF90BF90AF9008958F929F92AF92BF92CF92DF92EF92E0
:20128000FF920F931F93CF93DF934C017A018A01020F131FEA01C62E660FDD085E01AE18A1
:2012A000BF08C017D10751F0C4010E947E0797FD05C0C816D90611F08993F0CFC501DF9163
:2012C000CF911F910F91FF90EF90DF90CF90BF90AF909F908F9008950F931F93CF93DF93E1
:2012E000EC018B0166E571E00E945212C8010E947E0797FD05C0682FCE010E94E414F6CFC5
:20130000CE01DF91CF911F910F910895EF92FF920F931F93CF93DF93EC017B01042F66E520
:2013200071E00E945212C7010E947E07002E000C110B97FD0BC00817190741F0682FCE01DC
:201340000E94E414C7010E947E07F3CFCE01DF91CF911F910F91FF90EF9008952F923F9216
:201360004F925F926F927F928F929F92AF92BF92CF92DF92EF92FF920F931F93CF93DF9399
:2013800026E0249F5001259FB00C1124A60EB71EFB01EA15FB0548F11B014C0166246394D7
:2013A000712CC4010E947E0797FD7DC0F101EA15FB05B8F76081718144815581DB01A40F36
:2013C000B51F2C91022E000C330B2817390799F54F5F5F4F558344832281338142175307F0
:2013E00009F042C0E219F30906C022813381232B01F5E61BF70BF595E7952BEA3AEAE29FD7
:20140000C001E39F900DF29F900D1124DF91CF911F910F91FF90EF90DF90CF90BF90AF90FF
:201420009F908F907F906F905F904F903F902F9008953696AECF41155105B1F0E480F580E8
:2014400097012150310935832483DB01A20FB31FAC910A2E000CBB0BA817B90709F5211591
:20146000310521F4758264823696A1CF6B018A01021B130B060F171FB0E0A0E0E6014990BB
:201480006E01E80159908E01451004C01196A217B307A0F3A217B30789F6F582E482E4CF34
:2014A000232B61F6E1CF8FEF9FEFB0CFEF92FF920F931F93CF93DF93CDB7DEB72C970FB671
:2014C000F894DEBF0FBECDBF21153105F9F41E821D827A8369835C834B8341E050E0BE014C
:2014E0006F5F7F4F0E94AE0921E0892B09F020E0822F2C960FB6F894DEBF0FBECDBFDF911F
:20150000CF911F910F91FF90EF9008957E01E5E0EE0EF11CA8E0F7011192AA95E9F77A83E4
:2015200069835C834B8338872F831A87098742E050E0D5CF0F931F939A01FA0101900020DF
:20154000E9F731978F01041B150BFB0101900020E9F73197AF01461B570B0E94560A1F919A
:201560000F910895CF93DF9300D000D000D0CDB7DEB71E821D827A8369835C834B8341E0DB
:2015800050E0BE016F5F7F4F0E94AE0921E0892B09F020E0822F26960FB6F894DEBF0FBE91
:2015A000CDBFDF91CF910895CF93DF9300D000D000D0CDB7DEB7FB0101900020E9F7319780
:2015C000E61BF70B1E821D827A836983FC83EB8341E050E0BE016F5F7F4F0E94AE0921E0ED
:2015E000892B09F020E0822F26960FB6F894DEBF0FBECDBFDF91CF9108954F925F926F924A
:201600007F928F929F92AF92BF92CF92DF92EF92FF920F931F93CF93DF9300D000D01F9278
:20162000CDB7DEB78B0129013A0190912C018917C9F09F3F09F47EC00F900F900F900F9064
:201640000F90DF91CF911F910F91FF90EF90DF90CF90BF90AF909F908F907F906F905F9016
:201660004F900895EDE9F1E094919D8397FDE4CF61E00E941C108D81882321F09D81923002
:2016800009F052C14801B12CA12C60E072E18AE790E0A50198010E94D31B29833A834B83D1
:2016A0005C8369017A0181E0C81AD108E108F1089FEFC916D104E104F10409F008F409C18D
:2016C00060E472E48FE090E0A50198010E94D31B69017A0181E0C81AD108E108F1089D81C1
:2016E000923009F0AAC08FEFC816D104E104F10409F008F4EFC160E970ED83E090E0A501F6
:2017000098010E94D31B69017A0191E0C91AD108E108F1088FEFC816D104E104F10411F0A0
:2017200008F088C183E09091B100987F892B8093B100D7C080932C01EDE9F1E094919D83E1
:201740009F3F09F479CF913061F150F0923009F44EC09D8197FD70CF61E00E941C108ECFE9
:2017600014BC15BC94B5926094BD95B5916095BD282F30E0F901EA53FE4FE491F0E0EE0F82
:20178000FF1FEC51FE4F4591549150931E0240931D02F901EE54FE4FE491E0931C021D82C3
:2017A00067CF10928000109281009091810098609093810090918100916090938100282FE2
:2017C00030E0F901EA53FE4FE491F0E0EE0FFF1FEC51FE4F459154915093170240931602E9
:2017E000F901EE54FE4FE491E093150241CF1092B0001092B1009091B00092609093B00016
:201800009091B10091609093B100282F30E0F901EA53FE4FE491F0E0EE0FFF1FEC51FE4F5C
:20182000459154915093100240930F02F901EE54FE4FE491E0930E021BCF9FEFC916D10467
:20184000E104F10409F008F46DC068E478EE81E090E0A50198010E94D31B69017A0181E0F4
:20186000C81AD108E108F1089D81992309F4FBC08FEFC816D104E104F10411F008F0FCC079
:20188000F0C064E274EF80E090E0A50194010E94D31B69017A0181E0C81AD108E108F10871
:2018A00085E09FEFC916D104E104F10409F008F43ACF62E17AE780E090E0A50194010E9458
:2018C000D31B69017A0181E0C81AD108E108F108E6C081E09D81911126CF95B5987F892B66
:2018E00085BD2FEF3FEFA901411451046104710409F053C09D81913009F45FC0923009F466
:201900006EC0911199CEC7BC20931F0230932002409321025093220280916E0082608093E3
:201920006E008ACE82E0D6CFB12CA12C60E072E18AE790E0A50198010E94D31B69017A0108
:2019400081E0C81AD108E108F108C114D10491E0E906F10480F168E478EE81E090E0A501F0
:2019600098010E94D31B69017A0181E0C81AD108E108F10893E08D81813009F0B2CF80919E
:201980008100887F892B809381002FEF3FEFA901411451046104710481F0D801AA0FBB1F20
:2019A000A30192010E94141C28EE33E040E050E00E94D31B9FCF91E0DECFD0928900C0924C
:2019C0008800209318023093190240931A0250931B0280916F00826080936F002DCEC092B4
:2019E000B30020931102309312024093130250931402809170008260809370001DCE84E081
:201A00009FEFC916D104E104F10409F008F465CFC980DA80EB80FC808AE0F694E794D7941D
:201A2000C7948A95D1F781E0C81AD108E108F10885E053CF68E478EE81E090E0A50198011D
:201A40000E94D31B69017A0181E0C81AD108E108F1089FEFC916D104E104F10411F008F0FE
:201A600010CF84E060CE83E09FEFC916D104E104F10409F008F431CF62E17AE780E090E00D
:201A8000A50194010E94D31B69017A0181E0C81AD108E108F1089D81992309F4B0CF86E0DC
:201AA0009FEFC916D104E104F10409F008F43BCEC980DA80EB80FC809AE0F694E794D79498
:201AC000C7949A95D1F781E0C81AD108E108F10887E029CE82E027CE813039F018F082306D
:201AE00051F0089510926E00089580916F008D7F80936F000895809170008D7F80937000A0
:201B000081E08093B0008091B100887F84608093B1001092B3000895CF93C82F80912C01A7
:201B2000C8130DC0EDE9F1E084919FEF90932C010E946C0D60E08C2FCF910C9458108FEF67
:201B4000F7CF1F920F920FB60F9211242F933F934F935F936F937F938F939F93AF93BF936E
:201B6000EF93FF938091110290911202A0911302B0911402892B8A2B8B2BD1F190910E0249
:201B8000E0910F02F09110028081892780838091110290911202A0911302B0911402181658
:201BA00019061A061B069CF48091110290911202A0911302B09114020197A109B109809330
:201BC000110290931202A0931302B0931402FF91EF91BF91AF919F918F917F916F915F912A
:201BE0004F913F912F910F900FBE0F901F90189580912C010E948C0DEACF08958230E8F4B1
:201C0000E82FF0E0EE0FFF1FE35DFE4F71836083813041F0809169008C7F482B4093690048
:201C2000E89A089580916900837F440F551F440F551F482B40936900E99A0895823068F49E
:201C4000E82FF0E0813051F0E898EE0FFF1FE35DFE4F8DEF9DE0918380830895E998F5CF91
:201C60001F920F920FB60F9211242F933F934F935F936F937F938F939F93AF93BF93EF9391
:201C8000FF93E0912D01F0912E010995FF91EF91BF91AF919F918F917F916F915F914F91F5
:201CA0003F912F910F900FBE0F901F9018951F920F920FB60F9211242F933F934F935F93D8
:201CC0006F937F938F939F93AF93BF93EF93FF93E0912F01F09130010995FF91EF91BF91A3
:201CE000AF919F918F917F916F915F914F913F912F910F900FBE0F901F9018951F920F922B
:201D00000FB60F9211242F933F938F939F93AF93BF938091230290912402A0912502B09196
:201D2000260230912B0223E0230F2D3758F50196A11DB11D20932B02809323029093240223
:201D4000A0932502B09326028091270290912802A0912902B0912A020196A11DB11D80933A
:201D6000270290932802A0932902B0932A02BF91AF919F918F913F912F910F900FBE0F90A5
:201D80001F90189526E8230F0296A11DB11DD2CF2FB7F894609123027091240280912502FB
:201DA000909126022FBF08953FB7F8948091270290912802A0912902B0912A0226B5A89B61
:201DC00005C02F3F19F00196A11DB11D3FBFBA2FA92F982F8827BC01CD01620F711D811D47
:201DE000911D42E0660F771F881F991F4A95D1F708958F929F92AF92BF92CF92DF92EF922E
:201E0000FF926B017C010E94D40E4B015C01C114D104E104F104E9F00E94AF030E94D40EE6
:201E2000681979098A099B09683E73408105910570F321E0C21AD108E108F10888EE880EEC
:201E400083E0981EA11CB11CC114D104E104F10429F7FF90EF90DF90CF90BF90AF909F90A2
:201E60008F9008958230910538F0880F991F880F991F05970197F1F70895789484B58260B8
:201E800084BD84B5816084BD85B5826085BD85B5816085BDEEE6F0E0808181608083E1E899
:201EA000F0E01082808182608083808181608083E0E8F0E0808181608083E1EBF0E08081DB
:201EC00084608083E0EBF0E0808181608083EAE7F0E080818460808380818260808380812B
:201EE000816080838081806880831092C10008958093310108958E3008F08E5020913101B9
:201F000090E4299F900111248770822B80937C0080917A00806480937A0080917A0086FD82
:201F2000FCCF809178009091790008951F93CF93DF93182FEB0161E00E941C10209739F46A
:201F400060E0812FDF91CF911F910C945810CF3FD10511F461E0F5CFE12FF0E0E256FE4FB6
:201F6000E491E33031F140F4E130B1F0E230E1F0C038D1057CF7E4CFE73029F1E83059F167
:201F8000E430B1F780918000806280938000D0938B00C0938A0004C084B5806884BDC7BD0A
:201FA000DF91CF911F91089584B5806284BDC8BDF7CF80918000806880938000D093890065
:201FC000C0938800EDCF8091B00080688093B000C093B300E5CF8091B00080628093B000DE
:201FE000C093B400DDCF833081F028F4813099F08230A9F008958730A9F08830C9F0843057
:20200000B1F4809180008F7D03C0809180008F7780938000089584B58F7784BD089584B59E
:202020008F7DFBCF8091B0008F778093B00008958091B0008F7DF9CFCF93DF9390E0FC01CD
:20204000EE54FE4F24918A539E4FFC0184918823C9F090E0880F991FFC01E251FE4FA5918A
:20206000B491FC01EC51FE4FC591D49161110DC09FB7F8948C91209582238C9388812823CE
:2020800028839FBFDF91CF910895623051F49FB7F8943C91822F809583238C93E8812E2BF7
:2020A000EFCF8FB7F894EC912E2B2C938FBFEACF1F93CF93DF93282F30E0F901E256FE4F88
:2020C0008491F901EE54FE4FD491F901EA53FE4FC491CC23A9F0162F81110E94F30FEC2F06
:2020E000F0E0EE0FFF1FEC51FE4FA591B4918FB7F894EC91111108C0D095DE23DC938FBF94
:20210000DF91CF911F910895DE2BF8CFCF93DF93282F30E0F901E256FE4F8491F901EE54C7
:20212000FE4FD491F901EA53FE4FC491CC23A1F081110E94F30FEC2FF0E0EE0FFF1FE65220
:20214000FE4FA591B491EC91ED2381E090E009F480E0DF91CF91089580E090E0FACFCF9295
:20216000DF92EF92FF920F931F93E82FF92F05C0015011092109310961F1908196239417EE
:20218000B9F305C0015011092109310911F1908196239413F7CFC12CD12CE12CF12C0AC0E8
:2021A0008FEFC81AD80AE80AF80A0C151D052E053F0579F080818623841791F36C2D7D2DBA
:2021C0008E2D9F2D1F910F91FF90EF90DF90CF90089560E070E080E090E01F910F91FF9070
:2021E000EF90DF90CF900895CF92DF92EF92FF920F931F93CF93DF93F82ED62FE42E10E0BC
:2022000000E0C0E087E0C82ED12C61E08D2F0E9458108F2DE1101BC00E948610002E01C02E
:20222000880F0A94EAF7C82B60E08D2F0E9458100F5F1F4F0830110541F78C2FDF91CF91A2
:202240001F910F91FF90EF90DF90CF9008950E9486109601201B310B01C0880F2A95EAF777
:20226000E2CFFF920F931F93CF93DF93082F162FF42EC22FD8E06C2FF11015C06170802FBC
:202280000E945810C69561E0812F0E94581060E0812F0E945810D15071F7DF91CF911F91DB
:2022A0000F91FF900895661F6627661F802F0E945810CC0FE8CF611571058105910511F067
:2022C0000C944E200895CF92DF92EF92FF926B017C01C114D104E104F10441F00E94FF1F11
:2022E000A70196010E94F51B6B017C01C701B601FF90EF90DF90CF900895CF92DF92EF92B9
:20230000FF926B017C01C216D306E406F50664F4CA01B9016C197D098E099F090E94631170
:20232000C60ED71EE81EF91EC701B601FF90EF90DF90CF9008954F925F926F927F92AF929A
:20234000BF92CF92DF92EF92FF920F931F93CF93DF93CDB7DEB729013A019B01AC0124191C
:2023600035094609570989899A89AB89BC89BC01CD016A197B098C099D090E94C31BA801CC
:20238000970124193509460957090E94F51BCA01B9016A0D7B1D8C1D9D1DDF91CF911F9152
:2023A0000F91FF90EF90DF90CF90BF90AF907F906F905F904F9008950895982F862F0895E4
:2023C000FC0180819181009711F00C942A1F0895CF93DF93EC0188819981009711F00E94B1
:2023E0002A1F198218821D821C821B821A82DF91CF9108950F931F93CF93DF93EC018B01DB
:202400006F5F7F4F888199810E945720009751F0998388831B830A8381E0DF91CF911F91D9
:202420000F91089580E0F9CFCF93DF93EC0188819981892B49F08A819B818617970720F0F4
:2024400081E0DF91CF910895CE010E94FA118823C1F38C819D81892B99F7E881F9811082EF
:20246000EFCFEF92FF920F931F93CF93DF93EC017B018A01BA010E94141281110BC0CE01C1
:202480000E94E811CE01DF91CF911F910F91FF90EF9008951D830C83B701888199810E945B
:2024A000A921F0CFFC011182108213821282158214826115710551F0FB0101900020E9F761
:2024C0003197AF01461B570B0C9431120895FB0101900020E9F73197AF01461B570B0C94D9
:2024E0003112CF93DF9300D0CDB7DEB7FC0111821082138212821582148269831A82BE011D
:202500006F5F7F4F0E9467120F900F90DF91CF9108950F931F93CF93DF93CDB7DEB7299758
:202520000FB6F894DEBF0FBECDBF8C01862FF80111821082138212821582148250E0BE01AF
:202540006F5F7F4F90E00E946422BE016F5F7F4FC8010E94671229960FB6F894DEBF0FBE8E
:20256000CDBFDF91CF911F910F9108950F931F93CF93DF93CDB7DEB762970FB6F894DEBFEA
:202580000FBECDBF8C01CB01F80111821082138212821582148250E0BE016F5F7F4F0E94E8
:2025A000F221BE016F5F7F4FC8010E94671262960FB6F894DEBF0FBECDBFDF91CF911F910A
:2025C0000F9108950F931F93CF93DF93CDB7DEB761970FB6F894DEBF0FBECDBF8C01CB01E5
:2025E000F80111821082138212821582148250E0BE016F5F7F4F0E946422BE016F5F7F4F59
:20260000C8010E94671261960FB6F894DEBF0FBECDBFDF91CF911F910F9108950F931F9387
:20262000CF93DF93CDB7DEB7A2970FB6F894DEBF0FBECDBF8C01CB01BA01F80111821082FB
:20264000138212821582148230E0AE014F5F5F4F0E940822BE016F5F7F4FC8010E946712FE
:20266000A2960FB6F894DEBF0FBECDBFDF91CF911F910F9108950F931F93CF93DF93CDB772
:20268000DEB7A1970FB6F894DEBF0FBECDBF8C01CB01BA01F8011182108213821282158234
:2026A000148230E0AE014F5F5F4F0E943722BE016F5F7F4FC8010E946712A1960FB6F894A7
:2026C000DEBF0FBECDBFDF91CF911F910F910895EF92FF920F931F93CF93DF93EC017B01A4
:2026E0008A01BA010E94141281110BC0CE010E94E811CE01DF91CF911F910F91FF90EF9008
:2027000008951D830C83B701888199810E945D21F0CF0F931F93CF93DF938C01EB01FC0195
:2027200080819181009701F16881798161157105C9F022EC3BE1232BA9F0428153812C8120
:202740003D814217530770F00E94A9218C819D81F801958384831D821C82DF91CF911F913C
:202760000F9108950E942A1F88819981F801918380838A819B81938382838C819D81958379
:202780008483198218821B821A82E5CFFC011182108213821282158214820C948913FC015F
:2027A0001182108213821282158214820C948913CF93DF93EC01FB018617970749F0608150
:2027C00071816115710541F0448155810E943112CE01DF91CF9108950E94E811F9CFFC01CE
:2027E0001182108213821282158214820C94D813CF93DF93EC018617970711F00E94891398
:20280000CE01DF91CF910895CF93DF93EC016817790711F00E948913CE01DF91CF91089541
:20282000CF93DF93EC016115710531F00E946712CE01DF91CF9108950E94E811F9CFEF928F
:20284000FF920F931F93CF93DF93CDB7DEB7A1970FB6F894DEBF0FBECDBF7C01CB01BA0123
:20286000F70111821082138212821582148242E0420F8E010F5F1F4F0E94701EBC01C70152
:202880000E941014A1960FB6F894DEBF0FBECDBFDF91CF911F910F91FF90EF900895EF92A8
:2028A000FF920F931F93CF93DF93CDB7DEB7A1970FB6F894DEBF0FBECDBF7C01CB01BA01C3
:2028C000F70111821082138212821582148242E0420F8E010F5F1F4F0E94701EBC01C701F2
:2028E0000E941014A1960FB6F894DEBF0FBECDBFDF91CF911F910F91FF90EF9008950F9327
:202900001F93CF93DF93EC018B016115710571F0CB010E946421AC01B801CE010E94681326
:20292000CE01DF91CF911F910F9108950E94E811F7CFFC0111821082138212821582148232
:202940000C947F14EF92FF920F931F93CF93DF936115710541F480E0DF91CF911F910F9169
:20296000FF90EF90089541155105B1F07B01EC010C811D81040F151FB8010E941412882358
:2029800051F3288139818C819D81B701820F931F0E94A9211D830C8381E0DECFFB01448100
:2029A0005581608171810C94A2146115710551F0FB0101900020E9F73197AF01461B570B23
:2029C0000C94A21480E00895CF93DF9300D0CDB7DEB769831A8241E050E0BE016F5F7F4FB3
:2029E0000E94A2140F900F90DF91CF910895EF92FF920F931F93CF93DF9300D000D0CDB776
:202A0000DEB77C01862F4AE08E010F5F1F4FB80190E00E94FD21F80101900020E9F731971F
:202A2000AF01401B510BB801C7010E94A2140F900F900F900F90DF91CF911F910F91FF902B
:202A4000EF900895EF92FF920F931F93CF93DF93CDB7DEB728970FB6F894DEBF0FBECDBF01
:202A60007C01CB014AE08E010F5F1F4FB8010E94FD21F80101900020E9F73197AF01401BA2
:202A8000510BB801C7010E94A21428960FB6F894DEBF0FBECDBFDF91CF911F910F91FF904D
:202AA000EF900895EF92FF920F931F93CF93DF9300D000D000D01F92CDB7DEB77C01CB013D
:202AC0004AE08E010F5F1F4FB8010E946F22F80101900020E9F73197AF01401B510BB80103
:202AE000C7010E94A21427960FB6F894DEBF0FBECDBFDF91CF911F910F91FF90EF900895E7
:202B0000EF92FF920F931F93CF93DF93CDB7DEB72E970FB6F894DEBF0FBECDBF7C01CB010D
:202B2000BA012AE08E010F5F1F4FA8010E941322F80101900020E9F73197AF01401B510B2C
:202B4000B801C7010E94A2142E960FB6F894DEBF0FBECDBFDF91CF911F910F91FF90EF9063
:202B60000895EF92FF920F931F93CF93DF93CDB7DEB72D970FB6F894DEBF0FBECDBF7C01DD
:202B8000CB01BA012AE08E010F5F1F4FA8010E944222F80101900020E9F73197AF01401B2D
:202BA000510BB801C7010E94A2142D960FB6F894DEBF0FBECDBFDF91CF911F910F91FF9027
:202BC000EF900895EF92FF920F931F93CF93DF93CDB7DEB764970FB6F894DEBF0FBECDBF44
:202BE0007C01CB01BA018E010F5F1F4F22E044E00E94701EFC0101900020E9F73197AF010A
:202C0000481B590BBC01C7010E94A21464960FB6F894DEBF0FBECDBFDF91CF911F910F91AF
:202C2000FF90EF900895EF92FF920F931F93CF93DF93CDB7DEB764970FB6F894DEBF0FBEE0
:202C4000CDBF7C01CB01BA018E010F5F1F4F22E044E00E94701EFC0101900020E9F73197CD
:202C6000AF01481B590BBC01C7010E94A21464960FB6F894DEBF0FBECDBFDF91CF911F913F
:202C80000F91FF90EF900895EF92FF920F931F93CF93DF936115710541F480E0DF91CF915E
:202CA0001F910F91FF90EF9008957B01EC01CB010E9464210097A9F00C811D81080F191F13
:202CC000B801CE010E941412882339F3288139818C819D81B701820F931F0E945D211D8384
:202CE0000C8381E0DBCFCF93DF93EC01FB0144815581608171810E94A214811103C0CE0193
:202D00000E94E811CE01DF91CF910895CF93DF93EC016115710539F4CE010E94E811CE01C9
:202D2000DF91CF910895FB0101900020E9F73197AF01461B570B0E94A214882369F3EFCF41
:202D4000CF93DF93EC010E94E414811103C0CE010E94E811CE01DF91CF910895CF93DF9349
:202D6000EC010E94F714811103C0CE010E94E811CE01DF91CF910895CF93DF93EC010E945B
:202D80002215811103C0CE010E94E811CE01DF91CF910895CF93DF93EC010E9452158111A5
:202DA00003C0CE010E94E811CE01DF91CF910895CF93DF93EC010E948015811103C0CE018E
:202DC0000E94E811CE01DF91CF910895CF93DF93EC010E94B115811103C0CE010E94E81134
:202DE000CE01DF91CF910895CF93DF93EC010E94E215811103C0CE010E94E811CE01DF913F
:202E0000CF910895CF93DF93EC010E941316811103C0CE010E94E811CE01DF91CF9108952E
:202E2000CF93DF93EC010E944416811103C0CE010E94E811CE01DF91CF910895CF93DF9306
:202E4000EC01A881B981EB01E881F9811097F1F03097B1F4EC018C819D81892BC9F08C91BD
:202E600090E00BC0DB0114968D919C91892B81F0808190E0919581959109DF91CF9108956D
:202E8000BF01CD01DF91CF910C94A021309751F790E080E0F2CFFC0144815581FB0124819A
:202EA00035814217530729F40E941E1721E0892B09F020E0822F0895FC0124813581232B13
:202EC00031F421E0FB01672B49F4822F0895808191816115710539F421E0FC0180818823DD
:202EE000A1F320E0F2CF0E94A02121E0892B69F3F8CF0E941E17892F881F8827881F089519
:202F00000E941E1721E0181619060CF020E0822F08950E941E1721E0181619060CF420E01D
:202F2000822F08950E941E17892F8095881F8827881F0895EF92FF920F931F93CF93DF93CB
:202F40008617970769F1FC0124813581FB014481558124173507E1F4232B11F1FC010081D3
:202F60001181FB01C081D181F80181918F018823B9F0082E000C990B0E944D217C018991B4
:202F8000082E000C990B0E944D21E816F90661F380E0DF91CF911F910F91FF90EF900895BF
:202FA00081E0F7CFDB011496ED91FC91DC0114962D913C9115972E1B3F0B24173507A0F001
:202FC0002D913C912115310579F0DB016D917C916115710549F0CA01AF01820F931F0E9425
:202FE000B02121E0892B09F020E0822F0895FC0144815581FB01248135814217530720F052
:2030000050E040E00C94D21780E00895FC0124813581FB014481558124173507A0F0FC01E7
:2030200080819181009779F0FB01608171816115710549F0241B350B820F931F0E94A02164
:2030400021E0892B09F020E0822F0895DC0114962D913C9115976217730728F4ED91FC919C
:20306000E60FF71F40830895FC01248135816217730720F480819181009729F410922C02EF
:203080008CE292E00895860F971F0895FC01248135816217730748F480819181009729F081
:2030A000860F971FFC018081089580E008950C9446180F931F93CF93DF934115510559F012
:2030C0006115710541F0FC01048115812017310738F0FB011082DF91CF911F910F910895D9
:2030E00041505109021B130B4017510708F48A01EB01FC0160817181620F731FA801CE013D
:203100000E94BE21C00FD11F1882E5CFCF93DF93FC01248135814217530788F4C081D18133
:20312000062E000C770BCE01840F951F0E949521009729F08C1B9D0BDF91CF9108958FEF75
:203140009FEFFACF50E040E00C948618CF93DF93FC01248135814217530788F4C081D1819C
:20316000FB0160817181CE01840F951F0E94D821009729F08C1B9D0BDF91CF9108958FEFE5
:203180009FEFFACF50E040E00C94A618DF92EF92FF920F931F93CF93DF93DC0114962D913A
:2031A0003C914217530750F08FEF9FEFDF91CF911F910F91FF90EF90DF9008958C01EA0191
:2031C0002196DC01ED91FC911197EC0FFD1FD0801082ED90FC90062E000C770BC7010E947A
:2031E000CD21CE0DDF1DD8820097F1F2F80120813181821B930BDACFFC01448155814150DD
:2032000051090C94C618AF92BF92CF92DF92EF92FF920F931F93CF93DF936B01EA01FB01E5
:20322000448155814115510561F1FC01248135812115310531F12417350718F1C217D307DC
:2032400010F0E9012197FC0100811181C801AA24AA94BB24BA947801EC0EFD1EE816F9062F
:20326000A0F0F601608171810E94D821009769F09C01201B310BC217D30708F059010196B9
:20328000EDCFAA24AA94BB24BA94C501DF91CF911F910F91FF90EF90DF90CF90BF90AF90E9
:2032A0000895FC0144815581FB0124813581421B530B0C940319AF92BF92CF92DF92EF9226
:2032C000FF920F931F93CF93DF935C016B017A0189012417350720F48F2D7901042F182F2C
:2032E00066E571E0C5010E945212D6011496CD91DC91EC16FD06C8F40C171D0708F4E8012D
:20330000D601ED91FC911197EC0FFD1F108110826D917C916E0D7F1DC5010E941014F60144
:2033200080819181C80FD91F1883C501DF91CF911F910F91FF90EF90DF90CF90BF90AF90C0
:203340000895DC01ED91FC91309749F08191882331F08613FBCFDF0111974C93F7CF0895DD
:203360002F923F924F925F926F927F928F929F92AF92BF92CF92DF92EF92FF920F931F93BB
:20338000CF93DF93FC01448055804114510409F4CFC0FB01648075806114710409F4C8C049
:2033A0007A016B018C01FA01A480B580A618B708FC01C081D181A114B104B9F4F601608149
:2033C0007181CE010E94D821EC01009709F4B0C0F70160817181448155810E947A21F70105
:2033E00084819581C80FD91FE9CFB7FC11C0FB01208031804201B101CE010E94D821009764
:2034000009F44AC0EC01C60DD71D8A0C9B1CF3CF3E01F60160817181CE010E94D8212C0142
:20342000009721F14C018C1A9D0AA401BE01C3010E947A21680C791CF7016081718144814B
:203440005581C3010E947A21F70184809580680C791CF601C481D581C40DD51DF801848128
:2034600095818A0D9B1D95838483D3CFBE01C301DF91CF911F910F91FF90EF90DF90CF90A7
:20348000BF90AF909F908F907F906F905F904F903F902F900C94A9214814590409F448C0BE
:2034A000F8018281938188159905E0F1F801448155814150510957FD3BC0B601C8010E9400
:2034C0000319EC0197FD34C0F60124813581280F391FF80180819181820F931F4481558190
:2034E000421B530BBC018A0D9B1D0E948321F801848195818A0D9B1D9583848320813181EA
:20350000820F931FFC011082F80180819181F70160817181448155818C0F9D1F0E947A21D3
:20352000AE01C7CFB401C8010E94FA118111BECFDF91CF911F910F91FF90EF90DF90CF9000
:20354000BF90AF909F908F907F906F905F904F903F902F900895CF93DF93DC011496ED91AF
:20356000FC916E177F0728F54115510511F19F01261B370B4217530708F49A01DB01EC01B2
:2035800088819981E21BF30BFD83EC83AF01461B570B260F371FBC01620F731F8A0F9B1F0D
:2035A0000E94BE21E881F9818C819D81E80FF91F1082DF91CF9108954FEF5FEF0C94AB1A7D
:2035C000CF93DF93FC01C081D181209761F08991882349F0082E000C990B0E944D21FE018C
:2035E00031978083F4CFDF91CF910895CF93DF93FC01C081D181209761F08991882349F066
:20360000082E000C990B0E945521FE0131978083F4CFDF91CF910895AF92BF92CF92DF924E
:20362000EF92FF920F931F93CF93DF93DC01CD90DC901197C114D10439F01496CD91DC91BA
:203640008C017601209761F4DF91CF911F910F91FF90EF90DF90CF90BF90AF9008957501BD
:203660005701BFEFAB1ABB0AF7018081082E000C990B0E944421892B91F72197CC0DDD1D0D
:203680008881082E000C990B0E944421892B29F0CE15DF0510F02197F3CFAE014F5F5F4F1B
:2036A0004E195F09D80115965C934E931497CE14DF0420F4B701C6010E947A21D801ED9150
:2036C000FC91119714968D919C91E80FF91F1082BBCFFC0180819181009711F00C941D210F
:2036E00060E070E0CB010895FC0180819181009711F00C94192160E070E0CB0108950C94B6
:20370000741BE0E7F1E01382128288EE93E0A0E0B0E084839583A683B78380E491E09183F5
:20372000808385EC90E09587848784EC90E09787868780EC90E0918B808B81EC90E0938B75
:20374000828B82EC90E0958B848B86EC90E0978B868B118E128E138E148E089508950E94DC
:203760003D0F0E9471040E942701CCE2D2E00E9437012097E1F30E942C02F9CF90E080E0EF
:20378000089508950895DB018F939F930E94141CBF91AF91A29F800D911DA39F900DB29F14
:2037A000900D11240895A1E21A2EAA1BBB1BFD010DC0AA1FBB1FEE1FFF1FA217B307E4073D
:2037C000F50720F0A21BB30BE40BF50B661F771F881F991F1A9469F76095709580959095B7
:2037E0009B01AC01BD01CF010895052E97FB1EF400940E940C1C57FD07D00E94D31B07FC62
:2038000003D04EF40C940C1C50954095309521953F4F4F4F5F4F08959095809570956195EA
:203820007F4F8F4F9F4F08950E94251CA59F900DB49F900DA49F800D911D11240895EE0F50
:20384000FF1F0590F491E02D0994A29FB001B39FC001A39F700D811D1124911DB29F700D73
:20386000811D1124911D08955058BB27AA270E944C1C0C94BF1D0E94B11D38F00E94B81D3A
:2038800020F039F49F3F19F426F40C94AE1D0EF4E095E7FB0C94A81DE92F0E94D01D58F3CB
:2038A000BA17620773078407950720F079F4A6F50C94F21D0EF4E0950B2EBA2FA02D0B01F4
:2038C000B90190010C01CA01A0011124FF27591B99F0593F50F4503E68F11A16F040A22FD8
:2038E000232F342F4427585FF3CF469537952795A795F0405395C9F77EF41F16BA0B620BDF
:20390000730B840BBAF09150A1F0FF0FBB1F661F771F881FC2F70EC0BA0F621F731F841FCE
:2039200048F4879577956795B795F7959E3F08F0B0CF9395880F08F09927EE0F979587953F
:2039400008950E94841D08F481E008950E94BA1C0C94BF1D0E94B81D58F00E94B11D40F03A
:2039600029F45F3F29F00C94A81D51110C94F31D0C94AE1D0E94D01D68F39923B1F35523CF
:2039800091F3951B550BBB27AA2762177307840738F09F5F5F4F220F331F441FAA1FA9F343
:2039A00035D00E2E3AF0E0E832D091505040E695001CCAF72BD0FE2F29D0660F771F881F36
:2039C000BB1F261737074807AB07B0E809F0BB0B802DBF01FF2793585F4F3AF09E3F5105B1
:2039E00078F00C94A81D0C94F31D5F3FE4F3983ED4F3869577956795B795F7959F5FC9F77F
:203A0000880F911D9695879597F90895E1E0660F771F881FBB1F621773078407BA0720F051
:203A2000621B730B840BBA0BEE1F88F7E09508950E94D81D88F09F5798F0B92F9927B7515C
:203A4000B0F0E1F0660F771F881F991F1AF0BA95C9F714C0B13091F00E94F21DB1E008955D
:203A60000C94F21D672F782F8827B85F39F0B93FCCF3869577956795B395D9F73EF4909522
:203A80008095709561957F4F8F4F9F4F0895E89409C097FB3EF490958095709561957F4FD3
:203AA0008F4F9F4F9923A9F0F92F96E9BB279395F695879577956795B795F111F8CFFAF482
:203AC000BB0F11F460FF1BC06F5F7F4F8F4F9F4F16C0882311F096E911C0772321F09EE872
:203AE000872F762F05C0662371F096E8862F70E060E02AF09A95660F771F881FDAF7880F96
:203B00009695879597F90895990F0008550FAA0BE0E8FEEF16161706E807F907C0F01216A3
:203B20001306E407F50798F0621B730B840B950B39F40A2661F0232B242B252B21F4089586
:203B40000A2609F4A140A6958FEF811D811D089597F99F6780E870E060E008959FEF80ECA0
:203B6000089500240A941616170618060906089500240A9412161306140605060895092ED7
:203B80000394000C11F4882352F0BB0F40F4BF2B11F460FF04C06F5F7F4F8F4F9F4F08957B
:203BA00057FD9058440F551F59F05F3F71F04795880F97FB991F61F09F3F79F087950895AC
:203BC000121613061406551FF2CF4695F1DF08C0161617061806991FF1CF8695710561050C
:203BE00008940895E894BB2766277727CB0197F908950E94841D08F48FEF08950E94111EDF
:203C00000C94BF1D0E94B11D38F00E94B81D20F0952311F00C94A81D0C94AE1D11240C94AB
:203C2000F31D0E94D01D70F3959FC1F3950F50E0551F629FF001729FBB27F00DB11D639FA0
:203C4000AA27F00DB11DAA1F649F6627B00DA11D661F829F2227B00DA11D621F739FB00D3A
:203C6000A11D621F839FA00D611D221F749F3327A00D611D231F849F600D211D822F762F79
:203C80006A2F11249F5750409AF0F1F088234AF0EE0FFF1FBB1F661F771F881F9150504058
:203CA000A9F79E3F510580F00C94A81D0C94F31D5F3FE4F3983ED4F3869577956795B7952B
:203CC000F795E7959F5FC1F7FE2B880F911D9695879597F908950E94841D880B990B08952D
:203CE000EF920F931F93CF93DF93E80134E047FD34E1042E000C550B57FF03C05195419552
:203D00005109E32E022F242FAE010E948922CE01DF91CF911F910F91EF9008950F931F9359
:203D2000CF93DF938230910510F482E090E0E0912F02F091300230E020E0B0E0A0E0309755
:203D400099F42115310509F44AC0281B390B24303105D8F58A819B816115710589F1FB01FC
:203D600093838283FE0111C0408151810281138148175907E0F04817590799F4109761F0DB
:203D800012960C93129713961C933296CF01DF91CF911F910F91089500932F0210933002ED
:203DA000F4CF2115310551F04217530738F0A901DB019A01BD01DF01F801C1CFEF01F9CFB8
:203DC0009093300280932F02CDCFFE01E20FF31F819391932250310939832883D7CF20910A
:203DE0002D0230912E02232B41F4209134013091350130932E0220932D02209132013091C9
:203E000033012115310541F42DB73EB74091360150913701241B350BE0912D02F0912E0203
:203E2000E217F307A0F42E1B3F0B2817390778F0AC014E5F5F4F2417350748F04E0F5F1FEF
:203E400050932E0240932D02819391939FCFF0E0E0E09CCFCF93DF930097E9F0FC013297A2
:203E600013821282A0912F02B0913002ED0130E020E01097A1F420813181820F931F2091C3
:203E80002D0230912E022817390709F061C0F0932E02E0932D02DF91CF910895EA01CE17D7
:203EA000DF07E8F54A815B819E0141155105B1F7E901FB83EA8349915991C40FD51FEC1742
:203EC000FD0761F4808191810296840F951FE90199838883828193819B838A83F0E0E0E0B4
:203EE00012968D919C9113970097B9F52D913C911197CD010296820F931F20912D02309163
:203F00002E022817390739F6309751F51092300210922F02B0932E02A0932D02BCCFD38359
:203F2000C28340815181840F951FC817D90761F44E5F5F4F88819981480F591F518340836A
:203F40008A819B81938382832115310509F0B0CFF0933002E0932F029ECFFD01DC01C0CF0B
:203F600013821282D7CF8F929F92AF92BF92CF92DF92EF92FF92CF93DF93EC016881798106
:203F80008A819B81611571058105910521F464E279ED8BE597E02DE133EF41E050E00E9427
:203FA000F51B49015A019B01AC01A7EAB1E40E94141C6B017C01ACEEB4EFA50194010E9408
:203FC0003E26C60ED71EE81EF91EF7FE06C081E0C81AD108E10880E8F80AC882D982EA825C
:203FE000FB82C701B6019F77DF91CF91FF90EF90DF90CF90BF90AF909F908F9008958F9269
:204000009F92AF92BF92CF92DF92EF92FF92609138017091390180913A0190913B01611575
:2040200071058105910521F464E279ED8BE597E02DE133EF41E050E00E94F51B49015A016E
:204040009B01AC01A7EAB1E40E94141C6B017C01ACEEB4EFA50194010E943E26C60ED71EEF
:20406000E81EF91EF7FE06C081E0C81AD108E10880E8F80AC0923801D0923901E0923A0125
:20408000F0923B01C701B6019F77FF90EF90DF90CF90BF90AF909F908F900895609338014C
:2040A0007093390180933A0190933B010895B0E0A0E0EDE5F0E20C9445268C01009751F451
:2040C000CB010E948E1E8C01C801CDB7DEB7E0E10C946126FC01E60FF71F9C01225031091E
:2040E000E217F30708F49DC0D901CD91DC911197C617D70798F0C530D10530F3CE0104978C
:204100008617970708F3C61BD70B2297C193D1936D937C93CF010E942A1FD6CF5B01AC1AA4
:20412000BD0A4C018C0E9D1EA0912F02B0913002512C412CF12CE12C109731F580912D0220
:2041400090912E028815990509F05CC04616570608F058C08091320190913301009741F490
:204160008DB79EB74091360150913701841B950BE817F90708F055C0F0932E02E0932D02E5
:20418000F90171836083A0CF8D919C91119712966C90129713967C901397A815B90559F577
:2041A0006C0142E0C40ED11CCA14DB0420F1AC014A195B09DA011296159780F062827382F7
:2041C00051834083D9016D937C93E114F10471F0D7011396FC93EE93129776CF22968C0F42
:2041E0009D1FF90191838083F301EFCFF0933002E0932F0269CF4816590608F42C017D014B
:20420000D3019ACFCB010E948E1E7C01009749F0AE01B8010E947A21C8010E942A1F870119
:2042200053CF10E000E050CF81E090E0F8940C947A26662777270C94E8231F93FC0199278B
:204240008827BC01E89411911032E9F3193010F01E30C8F31B3251F01D3249F4689406C088
:204260000E942222610F711D811D911D119110531A30B0F33EF490958095709561957F4FE7
:204280008F4F9F4F1F91089591110C941026803219F089508550C8F70895911108958154B4
:2042A0008A5108F4805E855A08959111089581568A5108F4805285580895FB01DC01059026
:2042C0000D920020E1F70895FC0105900020E9F7809590958E0F9F1F0895FB01DC0104C049
:2042E0008D910190801921F441505040C8F7881B990B0895FB01DC0102C001900D92415041
:204300005040D8F708956817790768F4FB01DC01E40FF51FA40FB51F02C002900E9241505A
:204320005040D8F708950C947A21FC018191861721F08823D9F7992708953197CF0108957C
:20434000FB01DC018D91019080190110D9F3990B0895FB01DC0101900D920020E1F7089580
:20436000FB01DC014150504030F08D910190801919F40020B9F7881B990B0895FB01DC0141
:204380004150504048F001900D920020C9F701C01D9241505040E0F70895FC0181E090E0E1
:2043A0000190061609F4CF010020D1F701970895FB0151915523A9F0BF01DC014D914517A0
:2043C0004111E1F759F4CD010190002049F04D9140154111C9F3FB014111EFCF81E090E090
:2043E000019708954532510520F4423010F00C94FD21FB011082CB010895BB274A3031F4FF
:20440000992322F4BDE2909581959F4F0C9470222532310520F4223010F00C941322FA010D
:204420001082CA010895BB272A3051F4992342F4BDE290958095709561957F4F8F4F9F4FA1
:204440000C944322592F482F372F262F660F771F881F991F660F771F881F991F620F731FC6
:20446000841F951F660F771F881F991F08952532310520F4223010F00C944222FA0110825A
:20448000CA010895BB27FA01A62F6217710581059105330B30FB66F0AA27660F771F881FB5
:2044A000991FAA1FA21710F0A21B63953850A9F7A05DAA3308F0A95DA19336F7B111B193A6
:2044C0001082CA010C942B264532510520F4423010F00C946F22FB011082CB010895BB2731
:2044E000FB015527AA27880F991FAA1FA41710F0A41B83955051B9F7A05DAA3308F0A95DA0
:20450000A193009779F7B111B1931192CB010C942B26A9E0B0E0EFE8F2E20C9449266A01BC
:20452000F22EB02E102FFBE3AF2EA01608F41BE31F5F012F27E0AE014F5F5F4F0E94382514
:20454000BC018981982F9970913009F43FC09BE2E1FC04C09E2D9170E0FC3AC05E2D5071FB
:20456000E82FE87083FF46C084E0911101C083E0EF2DE81B8F1508F0E0E0D6018E2F20E209
:20458000552351F1992329F0D6019C93C60101966C0196012D5F3F4FE2FE24C08EE4D601FD
:2045A0008C9391E411969C93119712968C93D9018E2F90E281111BC0E20FF32FF11D1082F9
:2045C0008EEF9FEF2996ECE00C9465269DE2C6CF90E2C4CF2D9381508111FCCFCE0ED11C4A
:2045E000E0E0D0CF8EE6D6018C9391E6DBCF9D938150E0CF482F447082FF3DC084E0911172
:2046000001C083E08F1510F4EF2DE81BD6018E2F20E2552309F1992329F0D6019C93C60105
:2046200001966C0196012D5F3F4FE2FE1BC089E4D6018C938EE411968C93119786E41296B5
:204640008C93D9018E2F90E2882309F4B5CF9D938150FACF2D9381508111FCCFCE0ED11C85
:20466000E0E0D9CF89E6D6018C938EE611968C93119786E6E4CF9B0177FF02C030E020E088
:20468000A1E0B0E0911102C0B0E0A0E0F9013196AE0FBF1F8B2C912CBB2009F461C0540177
:2046A000EFEFAE1ABE0AAA0DBB1DFA161B0619F014F04F2D4A1B511188C0E3FC59C07601C5
:2046C000A42FB0E2A1114FC0C40ED11C992309F45BC040E0D6011196F60190836D01552393
:2046E00009F448C0012F060F9A81582F507184FF03C0913309F4015010160CF047C0093053
:2047000008F008E0EEE2FE2E5B01A01AB10885019194819491082F3F320729F4D601FC926C
:20472000F60131966F016217730794F1021713077CF5DB01A21BB30BAA24A394B12CAC0E3C
:20474000BD1EAA0DBB1D11968C9121503109D601119628153905F4F0F60180836D01DBCF91
:20476000B12CA12CA0CFF701B1937F01A150AACF9111B0CFD601942F50E302C05D93915079
:204780009111FCCFC40ED11C40E0ACCF01E0BACF80E3DBCF6217730731F4963388F49533B6
:2047A00011F4552369F0F6018083FD01842F90E2811108C0A40FB11D1C9290E080E002CFDC
:2047C00081E3F1CF91938150F3CF911183CF8ACFB0E0A0E0EEEEF3E20C9449265C017B0108
:2047E0006115710519F0DB018D939C9385010F5F1F4FF501D0818D2F90E00E9444216C0150
:20480000892BB9F5DD32B9F50F5F1F4FD5011196DC91C1E05801F1E0AF1AB10843E050E013
:2048200060E770E0C5010E941326892B69F5680182E0C80ED11C45E050E06BE670E0C601E3
:204840000E941326892B21F4680197E0C90ED11CE114F10419F0D701CD92DC9260E070E0E8
:2048600080E89FEFC111FFC060E070E080E89FE7FAC05801BBCFDB3229F485010E5F1F4F0B
:20488000F501D181C0E0C6CF43E050E068E670E0C5010E941326892BE9F0F80110E000E0B3
:2048A00020E030E0A9015F01B0ED8B2E8D0E89E08815C8F19C2E689491F88C2F8870C2FF6B
:2048C00016C0811102C00F5F1F4F3196D501DC91C92DE9CFE114F10429F00E5F1F4FF70144
:2048E0001183008360E070E080EC9FE7BCC0882311F001501109A5E0B0E00E94141C9B0109
:20490000AC01220F331F441F551F280D311D411D511D283999E93907490799E15907A8F25A
:20492000C6609C2ED2CFAEEF8A1206C0C3FD3CC09C2E689493F8C9CFDF7DD534A9F580813E
:204940008D3239F4C061DF011296818162E070E006C0DF018B32C1F3119661E070E080530C
:204960005D01A61AB70A8A30F8F4E0E8CE16ECE0DE065CF4B601660F771F660F771FC60E65
:20498000D71ECC0CDD1CC80ED11C5D01FFEFAF1ABF0A8C9180538A30A8F1C4FF03C0D19482
:2049A000C194D1080C0D1D1DC1FF09C0E114F10431F081E0A81AB108D701AD92BC92CA01D6
:2049C000B9010E94471DC370C33009F490584B015C0120E030E0A9010E94A11C882309F4A2
:2049E00040C0CFE9D0E017FF05C0119501951109C7E8D0E06E01B8E1CB1AD10880E2E82E81
:204A0000F12C0FC0D501B1CFFE0125913591459154910E191F09C501B4010E94FE1D4B014B
:204A20005C01D501C4010E151F0574F72497F594E794CC16DD06A9F78A2F880F8B2F881FF7
:204A40008F3F49F020E030E0A901C501B4010E94A11C811106C082E290E090933202809325
:204A60003102C501B401CDB7DEB7ECE00C946526283008F027E03327DA01990F311D87FD72
:204A8000916000966105710539F432602E5F3D9330E32A95E1F708959F3F30F08038710524
:204AA000610509F03C5F3C5F3D93913008F08068911DDF93CF931F930F93FF92EF92192FC0
:204AC000987F9695E92F96959695E90FFF27E350FF4F99273327EE24FF24A701E701059013
:204AE0000894079428F4360FE71EF81E491F511D660F771F881F991F0694A1F70590079461
:204B000028F4E70EF81E491F561FC11D770F881F991F661F0694A1F70590079428F4F80EC5
:204B2000491F561FC71FD11D880F991F661F771F0694A1F70590079420F4490F561FC71F31
:204B4000D81F990F661F771F881F0694A9F784911095177041F0D695C79557954795F7942E
:204B6000E7941A95C1F7E3EAF0E068941590159135916591959105907FE27395E118F10A9B
:204B8000430B560BC90BD009C0F7E10CF11E431F561FC91FD01D7EF4703311F48A95E6CF6C
:204BA000E894015030F0080F0AF40027021708F4202F2395022F7A3328F079E37D932A958F
:204BC000E9F710C07D932A9589F6069497956795379517951794E118F10A430B560BC90B7B
:204BE000D00998F023957E9173957A3308F070E37C932013B8F77E9170617D9330F0839574
:204C000071E37D9370E32A95E1F71124EF90FF900F911F91CF91DF91992787FD90950895DD
:204C2000992788270895FB01DC014150504088F08D9181341CF08B350CF4805E65916134EE
:204C40001CF06B350CF4605E861B611171F3990B0895881BFCCFDC01FC01672F71917723B8
:204C6000E1F7329704C07C916D9370836291AE17BF07C8F30895B7FF0C94141C0E94141CA1
:204C8000821B930B08952F923F924F925F926F927F928F929F92AF92BF92CF92DF92EF928F
:204CA000FF920F931F93CF93DF93CDB7DEB7CA1BDB0B0FB6F894DEBF0FBECDBF09942A88C1
:204CC000398848885F846E847D848C849B84AA84B984C884DF80EE80FD800C811B81AA81E9
:204CE000B981CE0FD11D0FB6F894DEBF0FBECDBFED010895F894FFCF00000100020003007D
:204D00000400050006000700080009000A000B000C000D000E000F001000110012001300DB
:204D200014001500FFFD0DFD0D0100003302800001000000000000007C028D041D025C02F4
:204D4000EF010902FB0100000000B0030D0A006E616E00696E66006F76660000000000EBE2
:204D6000018D04BE1BC11B00FFFFFFFFFFFFFFFFFFFFFFFFFFFFFFFFFFFFFFFFFFFFFFFF04
:204D8000FFFFFFFFFFFFFFFFFFFFFFFFFFFFFFFFFFFFFFFFFFFFFFFFFFFFFFFFFFFFFFFF33
:204DA000FFFFFFFFFFFFFFFFFFFFFFFFFFFFFFFFFFFFFFFFFFFFFFFFFFFFFFFFFFFFFFFF13
:204DC000FFFFFFFFFFFFFFFFFFFFFFFFFFFFFFFFFFFFFFFFFFFFFFFFFFFFFFFFFFFFFFFFF3
:204DE000FFFFFFFFFFFFFFFFFFFFFFFFFFFFFFFFFFFFFFFFFFFFFFFFFFFFFFFFFFFFFFFFD3
:207E0000112484B714BE81FFF0D085E08093810082E08093C00088E18093C10086E08093FC
:207E2000C20080E18093C4008EE0C9D0259A86E020E33CEF91E0309385002093840096BBAD
:207E4000B09BFECF1D9AA8958150A9F7CC24DD2488248394B5E0AB2EA1E19A2EF3E0BF2E79
:207E6000A2D0813461F49FD0082FAFD0023811F0013811F484E001C083E08DD089C0823404
:207E800011F484E103C0853419F485E0A6D080C0853579F488D0E82EFF2485D0082F10E0A0
:207EA000102F00270E291F29000F111F8ED068016FC0863521F484E090D080E0DECF84364D
:207EC00009F040C070D06FD0082F6DD080E0C81680E7D80618F4F601B7BEE895C0E0D1E0ED
:207EE00062D089930C17E1F7F0E0CF16F0E7DF0618F0F601B7BEE89568D007B600FCFDCF1A
:207F0000A601A0E0B1E02C9130E011968C91119790E0982F8827822B932B1296FA010C016F
:207F200087BEE89511244E5F5F4FF1E0A038BF0751F7F601A7BEE89507B600FCFDCF97BE85
:207F4000E89526C08437B1F42ED02DD0F82E2BD03CD0F601EF2C8F010F5F1F4F84911BD0B8
:207F6000EA94F801C1F70894C11CD11CFA94CF0CD11C0EC0853739F428D08EE10CD085E9AE
:207F80000AD08FE07ACF813511F488E018D01DD080E101D065CF982F8091C00085FFFCCF0A
:207FA0009093C60008958091C00087FFFCCF8091C00084FD01C0A8958091C6000895E0E68F
:207FC000F0E098E1908380830895EDDF803219F088E0F5DFFFCF84E1DECF1F93182FE3DF47
:207FE0001150E9F7F2DF1F91089580E0E8DFEE27FF270994FFFFFFFFFFFFFFFFFFFF040425
:00000001FF
