:200000000C9462000C948A000C948A000C948A000C948A000C948A000C948A000C948A00B8
:200020000C948A000C948A000C948A000C948A000C948A000C948A000C948A000C948A0070
:200040000C946D040C948A000C943B040C9415040C948A000C948A000C948A000C948A0025
:200060000C948A000C948A0000000000250028002B0000000000240027002A00000000003F
:20008000230026002900040404040404040402020202020203030303030301020408102071
:2000A0004080010204081020010204081020000000080002010000030407000000000000E9
:2000C00000001B0911241FBECFEFD4E0DEBFCDBF11E0A0E0B1E0E0EAF2E102C005900D92BA
:2000E000AE31B107D9F722E0AEE1B1E001C01D92A43EB207E1F710E0C2E6D0E004C02197D0
:20010000FE010E944809C136D107C9F70E94B7040C944E090C940000AF92BF92CF92DF9206
:20012000EF92FF920F931F93CF93DF936C017B018B01040F151FEB015E01AE18BF08C0171A
:20014000D10759F06991D601ED91FC910190F081E02DC6010995892B79F7C501DF91CF9174
:200160001F910F91FF90EF90DF90CF90BF90AF900895FC01538D448D252F30E0842F90E0F3
:20018000821B930B541710F0CF96089501970895FC01918D828D981761F0A28DAE0FBF2F7E
:2001A000B11D5D968C91928D9F5F9F73928F90E008958FEF9FEF0895FC01918D828D981782
:2001C00031F0828DE80FF11D858D90E008958FEF9FEF0895FC01918D228D892F90E0805C54
:2001E0009F4F821B91098F739927089587E492E00E94EA0021E0892B09F420E0822F089512
:2002000080E090E0892B29F00E94F60081110C9400000895FC01A48DA80FB92FB11DA35A42
:20022000BF4F2C91848D90E001968F739927848FA689B7892C93A089B1898C918370806481
:200240008C93938D848D981306C00288F389E02D80818F7D80830895EF92FF920F931F93B7
:20026000CF93DF93EC0181E0888F9B8D8C8D98131AC0E889F989808185FF15C09FB7F89450
:20028000EE89FF896083E889F98980818370806480839FBF81E090E0DF91CF911F910F915F
:2002A000FF90EF900895F62E0B8D10E00F5F1F4F0F731127E02E8C8D8E110CC00FB607FCF7
:2002C000FACFE889F989808185FFF5CFCE010E940A01F1CFEB8DEC0FFD2FF11DE35AFF4FA5
:2002E000F0829FB7F8940B8FEA89FB8980818062CFCF682F87E492E00C942C01CF93DF9383
:20030000EC01888D8823B9F0AA89BB89E889F9898C9185FD03C0808186FD0DC00FB607FCA2
:20032000F7CF8C9185FFF2CF808185FFEDCFCE010E940A01E9CFDF91CF910895833081F08F
:2003400028F4813099F08230A9F008958730A9F08830C9F08430B1F4809180008F7D03C0E5
:20036000809180008F7780938000089584B58F7784BD089584B58F7DFBCF8091B0008F77C3
:200380008093B00008958091B0008F7DF9CFCF93DF93ECEBF0E08491E8EAF0E0D491E4E904
:2003A000F0E0C491CC23A1F081110E949E01EC2FF0E0EE0FFF1FE458FF4FA591B491EC913D
:2003C000ED2381E090E009F480E0DF91CF91089580E090E0FACF1F93CF93DF93282F30E0EC
:2003E000F901E255FF4F8491F901E656FF4FD491F901EA57FF4FC491CC23A9F0162F811143
:200400000E949E01EC2FF0E0EE0FFF1FE859FF4FA591B4918FB7F894EC91111108C0D095ED
:20042000DE23DC938FBFDF91CF911F910895DE2BF8CFCF93DF9390E0FC01E656FF4F249191
:200440008A579F4FFC0184918823C9F090E0880F991FFC01EE58FF4FA591B491FC01E8594E
:20046000FF4FC591D49161110DC09FB7F8948C91209582238C938881282328839FBFDF91EF
:20048000CF910895623051F49FB7F8943C91822F809583238C93E8812E2BEFCF8FB7F894FC
:2004A000EC912E2B2C938FBFEACF3FB7F89480911F0190912001A0912101B091220126B519
:2004C000A89B05C02F3F19F00196A11DB11D3FBFBA2FA92F982F8827BC01CD01620F711DBB
:2004E000811D911D42E0660F771F881F991F4A95D1F708958F929F92AF92BF92CF92DF922A
:20050000EF92FF926B017C010E9455024B015C01C114D104E104F104B9F00E945502681997
:2005200079098A099B09683E73408105910580F321E0C21AD108E108F10888EE880E83E013
:20054000981EA11CB11CE4CFFF90EF90DF90CF90BF90AF909F908F900895CF92DF92EF9200
:20056000FF921F93CF93DF93182FC4E0D0E06B01770FEE08FF0861E0812F0E94EB01C70193
:20058000B6010E947A0260E0812F0E94EB01C701B6010E947A02219771F7DF91CF911F91CB
:2005A000FF90EF90DF90CF90089580914302909144020196909344028093430285E10C94A7
:2005C0007901209136013091370180914102909142022032310511F4807F08952034310554
:2005E00011F4807E08952038310511F4807C08952115314009F480780895CF92DF92EF92A3
:20060000FF92CF93DF93C82F6EE170E087E090E00E94AD0264E370E0CC2311F06EE170E091
:2006200086E090E00E94AD026BE570E0CC2311F06EE170E089E090E00E94AD026EE170E09B
:2006400080E090E00E947A029EE1C92ED12CE12CF12CC11105C08BE5C82ED12CE12CF12CEB
:20066000C4E0D0E061E087E00E94EB0161E086E00E94EB0161E089E00E94EB01C701B60104
:200680000E947A0260E087E00E94EB0160E086E00E94EB0160E089E00E94EB01C701B6011D
:2006A0000E947A022197F1F6DF91CF91FF90EF90DF90CF90089587E492E00E94EA00892B17
:2006C000D1F387E492E00E94C8000895CF93C82F0E945B03803251F484E10E9479018C2FE6
:2006E0000E94790180E1CF910C94790180914302909144020196909344028093430285E188
:20070000F2CF0E945B03803231F484E10E94790180E10C94790180914302909144020196F1
:20072000909344028093430285E1F3CF0F931F93CF93DF938C01CEE3D1E0CE018E53914038
:200740008017910724F40E945B038993F6CFDF91CF911F910F9108958EBD00000DB407FEA3
:20076000FDCF8EB508951F93CF93DF93162FD42FC22F0E94AC03812F0E94AC038D2F0E945E
:20078000AC038C2FDF91CF911F910C94AC03EF92FF920F931F93CF93DF93EC018B01CB01A1
:2007A0000E94960360E087E00E94EB018EE3E82E81E0F82E0C0F1D1FC017D10781F0F7014C
:2007C00021917F014C2F6D2F80EC0E94B3036DE270E080E090E00E947A022196EDCF61E0CB
:2007E00087E00E94EB0180E1DF91CF911F910F91FF90EF900895CF93DF93D82FC92F60E0C5
:2008000087E00E94EB0120E04D2F6C2F8CE40E94B3036EE170E080E090E00E947A0261E036
:2008200087E0DF91CF910C94EB011F920F920FB60F9211242F933F934F935F936F937F938C
:200840008F939F93AF93BF93EF93FF9387E492E00E940A01FF91EF91BF91AF919F918F9122
:200860007F916F915F914F913F912F910F900FBE0F901F9018951F920F920FB60F921124B4
:200880002F938F939F93EF93FF93E0915702F09158028081E0915D02F0915E0282FD1BC07D
:2008A0009081809160028F5F8F7320916102821741F0E0916002F0E0E95BFD4F958F80937C
:2008C0006002FF91EF919F918F912F910F900FBE0F901F9018958081F4CF1F920F920FB654
:2008E0000F9211242F933F938F939F93AF93BF938091230190912401A0912501B09126016C
:2009000030911E0123E0230F2D3758F50196A11DB11D20931E018093230190932401A0936A
:200920002501B093260180911F0190912001A0912101B09122010196A11DB11D80931F01A7
:2009400090932001A0932101B0932201BF91AF919F918F913F912F910F900FBE0F901F906E
:20096000189526E8230F0296A11DB11DD2CF789484B5826084BD84B5816084BD85B58260E6
:2009800085BD85B5816085BD80916E00816080936E001092810080918100826080938100AC
:2009A00080918100816080938100809180008160809380008091B10084608093B1008091B0
:2009C000B00081608093B00080917A00846080937A0080917A00826080937A0080917A0042
:2009E000816080937A0080917A00806880937A001092C100E0915702F091580282E080831C
:200A0000E0915302F09154021082E0915502F091560287E6808310925F02E0915B02F09144
:200A20005C0286E08083E0915902F0915A02808180618083E0915902F0915A0280818860CF
:200A40008083E0915902F0915A02808180688083E0915902F0915A0280818F7D808361E004
:200A600087E00E94190261E086E00E94190261E089E00E94190262E08EE00E94190260E0DA
:200A80008AE00E9419020E94C70121E0892B09F420E020930201822F0E94FD024BE8A42E06
:200AA000BB24B39450E9252E50E0352E64EA462E60E0562E70E0672E70E0772E88248394CE
:200AC000912C809145029091460261E0892B09F460E087E00E94EB018091430290914402B4
:200AE00061E0892B09F460E086E00E94EB012FB7F8948091230190912401A0912501B0914B
:200B000026012FBF40912701509128016091290170912A018C019D01041B150B260B370B99
:200B2000B901A801483251056105710518F18093270190932801A0932901B0932A01C091FA
:200B4000010180910001C13C20F081958093000102C0C032D0F380910001C80FC093010195
:200B600061E089E00E941902C1112BC060E089E00E94EB0187E492E00E94EA00892B09F400
:200B80007BC20E945B03813509F4F5C208F0ECC0813409F476C108F05BC0803309F458C145
:200BA000813309F45CC1803209F035C380914302909144020196909344028093430285E149
:200BC00050C2CF3F11F461E0D2CFE7EBF0E08491833019F138F48130B1F08230C9F0C7FDED
:200BE000F2CFC4CF873021F1883051F18430B9F780918000806280938000D0E0D0938B00D6
:200C0000C0938A00B7CF84B5806884BDC7BDB2CF84B5806284BDC8BDADCF80918000806834
:200C200080938000D0E0D0938900C0938800A2CF8091B00080688093B000C093B3009ACF5E
:200C40008091B00080628093B000C093B40092CF853409F42DC1803509F42FC1823409F0D1
:200C6000DAC284E190E00E94960320913E0120932B0180913F0180932C0180914001809303
:200C80002D018091410180932E018091420180932F018091430180933001809144018093F8
:200CA0003101809145018093320180914601809333018091480190E0982F8827309149017B
:200CC000830F911D909335018093340180914A0190E0982F882730914B01830F911D909381
:200CE00037018093360180914C0190E0982F882730914D01830F911D909339018093380136
:200D000080914E0190E0B0E0A0E0BA2FA92F982F882730914F01830F911DA11DB11DDC0102
:200D2000992788274091500150E0542F4427052E000C660B770B840F951FA61FB71F30912F
:200D40005101830F911DA11DB11D80933A0190933B01A0933C01B0933D0181E0203E08F41C
:200D600080E08093400278C0813609F445C1C0F4863509F4F1C1803609F43CC1853509F04B
:200D80004AC20E945B03C82F0E945B0390E0982F88278C0F911D90934202809341025CC048
:200DA000843709F482C1853709F414C2843609F032C20E945B03C82FD0E0DC2FCC270E94BB
:200DC0005B03C80FD11D0E945B03863409F01BC1CE010E9496030E945B03803209F0E6CEF8
:200DE00084E10E9479010E94E1026C013EE3E32E31E0F32EC7018E5391408C179D070CF05F
:200E0000FEC00E94E1028C159D0531F0C6010E94FB030E94E1026C01009141021091420219
:200E2000F7012081402F612F80E40E94B303F7012181402F612F88E40E94B3030F5F1F4F25
:200E40001093420200934102F2E0EF0EF11CD2CF10924402109243020E9481030DC10E94F3
:200E60005B03803209F0A2CE84E10E94790147E050E065E171E087E492E00E948C0080E11E
:200E8000F0C00E945B03813879F020F4803841F080E007C0823851F08339D1F783E501C0B4
:200EA00082E00E946603E8C081E0FBCF82E1F9CF85E090E00E949603CFCF809145029091A0
:200EC0004602892B49F661E08AE00E941902609140028AE00E94EB01CFB7F89480913F02E0
:200EE000811125C0F1018491F2019491E82FF0E0EE0FFF1FEE58FF4FA591B4918C91982373
:200F000021F461E08AE00E94EB0161E08AE00E9419028CB580618CBD8CB580648CBD61E001
:200F20008DE00E94190261E08BE00E94190280913F028F5F80933F02CFBF809102010AE0FE
:200F40001BE822E030E0811104C005E513E520E030E080E040E052E16AE770E076956795D9
:200F6000579547958F5F863011F487E005C0041715072607370790F3982F906A96958095AE
:200F8000817020913E02222351F02FB7F89430913E02313021F43DB33DB33DBB2FBF9CBDE1
:200FA0008DBD60E08DE00E94EB0164E170E080E090E00E947A02C091400261E06C278AE058
:200FC0000E94EB01C5010197F1F76C2F8AE00E94EB0162E370E080E090E00E947A0220E027
:200FE00040E063E58CEA0E94B303909246028092450232CF0E945B030E945B032DCFC60134
:201000000E94FB033CCF853409F0A4C080913801909139018C179D0790F00091410210912E
:201020004202000F111FC132D105F0F060E270E0C8010E94C703005E1F4FA097F4CF8091E6
:2010400043029091440201969093440280934302C1E10E945B03803269F484E10E9479015A
:201060008C2F0E94790108C0BE01C8010E94C703C0E1EFCF0E94D502C09102010E94C70147
:20108000C817190631F081E08C27809302010E94FD026114710409F414CD0E94F60088235B
:2010A00009F40FCD0E9400000CCD0E945B03082F0E945B03D82F0E945B03C82F0E945B03A7
:2010C000803219F00E94D502D7CF10E0102F00270D0F111D84E10E947901C63419F5F12CF0
:2010E000E12CE016F1060CF0CACEC0914102D091420220E04C2F6D2F80E20E94B3030E94B6
:20110000790120E04C2F6D2F88E20E94B3030E9479012196D0934202C093410222E0E20E7A
:20112000F11CDFCFC534B1F4C0914102D0914202CC0FDD1F0C0F1D1F0C171D0709F49FCE3E
:201140002FEF4C2F6D2F80EA0E94B3030E9479012196F2CF81E185CF84E090E00E9496033F
:20116000209141014091400160913F0180913E010E94B30396CE10924402109243029FB708
:20118000F89480913F02882319F0815080933F0280913F02811105C08CB58F7B8CBD1092B9
:2011A0003E029FBF60E08BE00E94190260E08DE00E9419026091400281E068278AE00E9490
:2011C000EB0160E08AE00E941902109246021092450242CE0E945B03803209F0E7CC84E116
:2011E0000E94790120E040E060E080E30E94B3030E94790120E041E060E080E30E94B30380
:201200000E94790120E042E060E080E30E94B3030E94790134CE8091430290914402019623
:2012200090934402809343020E945B03803209F0C6CC82E116CFE7E4F2E01382128288EE2C
:2012400093E0A0E0B0E084839583A683B78387E091E09183808385EC90E09587848784EC22
:2012600090E09787868780EC90E0918B808B81EC90E0938B828B82EC90E0958B848B86EC49
:2012800090E0978B868B118E128E138E148E0895EE0FFF1F0590F491E02D0994F894FFCF53
:1E12A000088001000000002C018C00B9007E01EA00C800DC0041565220495350000033
:00000001FF
